{
    "contractName": "SneakerFactory",
    "abi": [
        {
            "inputs": [
                {
                    "internalType": "address",
                    "name": "admin",
                    "type": "address"
                }
            ],
            "stateMutability": "nonpayable",
            "type": "constructor"
        },
        {
            "anonymous": false,
            "inputs": [
                {
                    "indexed": true,
                    "internalType": "bytes32",
                    "name": "role",
                    "type": "bytes32"
                },
                {
                    "indexed": true,
                    "internalType": "bytes32",
                    "name": "previousAdminRole",
                    "type": "bytes32"
                },
                {
                    "indexed": true,
                    "internalType": "bytes32",
                    "name": "newAdminRole",
                    "type": "bytes32"
                }
            ],
            "name": "RoleAdminChanged",
            "type": "event"
        },
        {
            "anonymous": false,
            "inputs": [
                {
                    "indexed": true,
                    "internalType": "bytes32",
                    "name": "role",
                    "type": "bytes32"
                },
                {
                    "indexed": true,
                    "internalType": "address",
                    "name": "account",
                    "type": "address"
                },
                {
                    "indexed": true,
                    "internalType": "address",
                    "name": "sender",
                    "type": "address"
                }
            ],
            "name": "RoleGranted",
            "type": "event"
        },
        {
            "anonymous": false,
            "inputs": [
                {
                    "indexed": true,
                    "internalType": "bytes32",
                    "name": "role",
                    "type": "bytes32"
                },
                {
                    "indexed": true,
                    "internalType": "address",
                    "name": "account",
                    "type": "address"
                },
                {
                    "indexed": true,
                    "internalType": "address",
                    "name": "sender",
                    "type": "address"
                }
            ],
            "name": "RoleRevoked",
            "type": "event"
        },
        {
            "anonymous": false,
            "inputs": [
                {
                    "indexed": true,
                    "internalType": "address",
                    "name": "nftAddress",
                    "type": "address"
                },
                {
                    "indexed": true,
                    "internalType": "address",
                    "name": "creator",
                    "type": "address"
                }
            ],
            "name": "SneakerNFTCreated",
            "type": "event"
        },
        {
            "inputs": [],
            "name": "ADMIN_ROLE",
            "outputs": [
                {
                    "internalType": "bytes32",
                    "name": "",
                    "type": "bytes32"
                }
            ],
            "stateMutability": "view",
            "type": "function"
        },
        {
            "inputs": [],
            "name": "DEFAULT_ADMIN_ROLE",
            "outputs": [
                {
                    "internalType": "bytes32",
                    "name": "",
                    "type": "bytes32"
                }
            ],
            "stateMutability": "view",
            "type": "function"
        },
        {
            "inputs": [],
            "name": "createSneakerNFT",
            "outputs": [
                {
                    "internalType": "address",
                    "name": "",
                    "type": "address"
                }
            ],
            "stateMutability": "nonpayable",
            "type": "function"
        },
        {
            "inputs": [],
            "name": "getNFTContracts",
            "outputs": [
                {
                    "internalType": "address[]",
                    "name": "",
                    "type": "address[]"
                }
            ],
            "stateMutability": "view",
            "type": "function"
        },
        {
            "inputs": [
                {
                    "internalType": "bytes32",
                    "name": "role",
                    "type": "bytes32"
                }
            ],
            "name": "getRoleAdmin",
            "outputs": [
                {
                    "internalType": "bytes32",
                    "name": "",
                    "type": "bytes32"
                }
            ],
            "stateMutability": "view",
            "type": "function"
        },
        {
            "inputs": [
                {
                    "internalType": "bytes32",
                    "name": "role",
                    "type": "bytes32"
                },
                {
                    "internalType": "address",
                    "name": "account",
                    "type": "address"
                }
            ],
            "name": "grantRole",
            "outputs": [],
            "stateMutability": "nonpayable",
            "type": "function"
        },
        {
            "inputs": [
                {
                    "internalType": "bytes32",
                    "name": "role",
                    "type": "bytes32"
                },
                {
                    "internalType": "address",
                    "name": "account",
                    "type": "address"
                }
            ],
            "name": "hasRole",
            "outputs": [
                {
                    "internalType": "bool",
                    "name": "",
                    "type": "bool"
                }
            ],
            "stateMutability": "view",
            "type": "function"
        },
        {
            "inputs": [
                {
                    "internalType": "uint256",
                    "name": "",
                    "type": "uint256"
                }
            ],
            "name": "nfts",
            "outputs": [
                {
                    "internalType": "address",
                    "name": "",
                    "type": "address"
                }
            ],
            "stateMutability": "view",
            "type": "function"
        },
        {
            "inputs": [
                {
                    "internalType": "bytes32",
                    "name": "role",
                    "type": "bytes32"
                },
                {
                    "internalType": "address",
                    "name": "account",
                    "type": "address"
                }
            ],
            "name": "renounceRole",
            "outputs": [],
            "stateMutability": "nonpayable",
            "type": "function"
        },
        {
            "inputs": [
                {
                    "internalType": "bytes32",
                    "name": "role",
                    "type": "bytes32"
                },
                {
                    "internalType": "address",
                    "name": "account",
                    "type": "address"
                }
            ],
            "name": "revokeRole",
            "outputs": [],
            "stateMutability": "nonpayable",
            "type": "function"
        },
        {
            "inputs": [
                {
                    "internalType": "bytes4",
                    "name": "interfaceId",
                    "type": "bytes4"
                }
            ],
            "name": "supportsInterface",
            "outputs": [
                {
                    "internalType": "bool",
                    "name": "",
                    "type": "bool"
                }
            ],
            "stateMutability": "view",
            "type": "function"
        }
    ],
    "bytecode": "608060405234801561001057600080fd5b5060405161266438038061266483398101604081905261002f916100fe565b6100597fa49807205ce4d355092ef5a8a18f56e8913cf4a201fbe287825b095693c217758261005f565b5061012e565b6000828152602081815260408083206001600160a01b038516845290915290205460ff166100fa576000828152602081815260408083206001600160a01b03851684529091529020805460ff191660011790556100b93390565b6001600160a01b0316816001600160a01b0316837f2f8788117e7eff1d82e926ec794901d17c78024a50270940304540a733656f0d60405160405180910390a45b5050565b60006020828403121561011057600080fd5b81516001600160a01b038116811461012757600080fd5b9392505050565b6125278061013d6000396000f3fe60806040523480156200001157600080fd5b5060043610620000b75760003560e01c806333b0b8fb116200007a57806333b0b8fb146200017057806336568abe146200018957806375b238fc14620001a057806391d1485414620001c8578063a217fddf14620001df578063d547741f14620001e857600080fd5b806301ffc9a714620000bc578063248a9ca314620000e8578063265aa621146200011d5780632f2ff15d146200014d5780632f6bef421462000166575b600080fd5b620000d3620000cd36600462000832565b620001ff565b60405190151581526020015b60405180910390f35b6200010e620000f93660046200085e565b60009081526020819052604090206001015490565b604051908152602001620000df565b620001346200012e3660046200085e565b62000237565b6040516001600160a01b039091168152602001620000df565b620001646200015e36600462000878565b62000262565b005b6200013462000290565b6200017a620003b5565b604051620000df9190620008b6565b620001646200019a36600462000878565b62000419565b6200010e7fa49807205ce4d355092ef5a8a18f56e8913cf4a201fbe287825b095693c2177581565b620000d3620001d936600462000878565b6200049b565b6200010e600081565b62000164620001f936600462000878565b620004c4565b60006001600160e01b03198216637965db0b60e01b14806200023157506301ffc9a760e01b6001600160e01b03198316145b92915050565b600181815481106200024857600080fd5b6000918252602090912001546001600160a01b0316905081565b6000828152602081905260409020600101546200027f81620004ed565b6200028b8383620004fc565b505050565b6000620002be7fa49807205ce4d355092ef5a8a18f56e8913cf4a201fbe287825b095693c21775336200049b565b620003095760405162461bcd60e51b815260206004820152601660248201527521b0b63632b91034b9903737ba10309036b4b73a32b960511b60448201526064015b60405180910390fd5b6000604051620003199062000824565b604051809103906000f08015801562000336573d6000803e3d6000fd5b5060018054808201825560009182527fb10e2d527612073b26eecdfd717e6a320cf44b4afac2b0732d9fcbe2b7fa0cf60180546001600160a01b0319166001600160a01b038416908117909155604051929350339290917f1aa1da83b24cbc967f549ee8cbbbffbd7a7e9520c12dd19b17ba8ff9b3055b2a91a3905090565b606060018054806020026020016040519081016040528092919081815260200182805480156200040f57602002820191906000526020600020905b81546001600160a01b03168152600190910190602001808311620003f0575b5050505050905090565b6001600160a01b03811633146200048b5760405162461bcd60e51b815260206004820152602f60248201527f416363657373436f6e74726f6c3a2063616e206f6e6c792072656e6f756e636560448201526e103937b632b9903337b91039b2b63360891b606482015260840162000300565b62000497828262000584565b5050565b6000918252602082815260408084206001600160a01b0393909316845291905290205460ff1690565b600082815260208190526040902060010154620004e181620004ed565b6200028b838362000584565b620004f98133620005ec565b50565b6200050882826200049b565b62000497576000828152602081815260408083206001600160a01b03851684529091529020805460ff19166001179055620005403390565b6001600160a01b0316816001600160a01b0316837f2f8788117e7eff1d82e926ec794901d17c78024a50270940304540a733656f0d60405160405180910390a45050565b6200059082826200049b565b1562000497576000828152602081815260408083206001600160a01b0385168085529252808320805460ff1916905551339285917ff6391f5c32d9c69d2a47ea670b442974b53935d1edc7fd64eb21e047a839171b9190a45050565b620005f882826200049b565b6200049757620006088162000650565b6200061583602062000663565b604051602001620006289291906200092b565b60408051601f198184030181529082905262461bcd60e51b82526200030091600401620009a4565b6060620002316001600160a01b03831660145b6060600062000674836002620009ef565b6200068190600262000a09565b67ffffffffffffffff8111156200069c576200069c62000a1f565b6040519080825280601f01601f191660200182016040528015620006c7576020820181803683370190505b509050600360fc1b81600081518110620006e557620006e562000a35565b60200101906001600160f81b031916908160001a905350600f60fb1b8160018151811062000717576200071762000a35565b60200101906001600160f81b031916908160001a90535060006200073d846002620009ef565b6200074a90600162000a09565b90505b6001811115620007cc576f181899199a1a9b1b9c1cb0b131b232b360811b85600f166010811062000782576200078262000a35565b1a60f81b8282815181106200079b576200079b62000a35565b60200101906001600160f81b031916908160001a90535060049490941c93620007c48162000a4b565b90506200074d565b5083156200081d5760405162461bcd60e51b815260206004820181905260248201527f537472696e67733a20686578206c656e67746820696e73756666696369656e74604482015260640162000300565b9392505050565b611a8c8062000a6683390190565b6000602082840312156200084557600080fd5b81356001600160e01b0319811681146200081d57600080fd5b6000602082840312156200087157600080fd5b5035919050565b600080604083850312156200088c57600080fd5b8235915060208301356001600160a01b0381168114620008ab57600080fd5b809150509250929050565b6020808252825182820181905260009190848201906040850190845b81811015620008f95783516001600160a01b031683529284019291840191600101620008d2565b50909695505050505050565b60005b838110156200092257818101518382015260200162000908565b50506000910152565b7f416363657373436f6e74726f6c3a206163636f756e74200000000000000000008152600083516200096581601785016020880162000905565b7001034b99036b4b9b9b4b733903937b6329607d1b60179184019182015283516200099881602884016020880162000905565b01602801949350505050565b6020815260008251806020840152620009c581604085016020870162000905565b601f01601f19169190910160400192915050565b634e487b7160e01b600052601160045260246000fd5b8082028115828204841417620002315762000231620009d9565b80820180821115620002315762000231620009d9565b634e487b7160e01b600052604160045260246000fd5b634e487b7160e01b600052603260045260246000fd5b60008162000a5d5762000a5d620009d9565b50600019019056fe60806040523480156200001157600080fd5b506040518060400160405280600a81526020016914db99585ad95c93919560b21b81525060405180604001604052806005815260200164534e45414b60d81b815250816000908162000064919062000191565b50600162000073828262000191565b505050620000906200008a6200009660201b60201c565b6200009a565b6200025d565b3390565b600780546001600160a01b038381166001600160a01b0319831681179093556040519116919082907f8be0079c531659141344cd1fd0a4f28419497f9722a3daafe3b4186f6b6457e090600090a35050565b634e487b7160e01b600052604160045260246000fd5b600181811c908216806200011757607f821691505b6020821081036200013857634e487b7160e01b600052602260045260246000fd5b50919050565b601f8211156200018c57600081815260208120601f850160051c81016020861015620001675750805b601f850160051c820191505b81811015620001885782815560010162000173565b5050505b505050565b81516001600160401b03811115620001ad57620001ad620000ec565b620001c581620001be845462000102565b846200013e565b602080601f831160018114620001fd5760008415620001e45750858301515b600019600386901b1c1916600185901b17855562000188565b600085815260208120601f198616915b828110156200022e578886015182559484019460019091019084016200020d565b50858210156200024d5787850151600019600388901b60f8161c191681555b5050505050600190811b01905550565b61181f806200026d6000396000f3fe608060405234801561001057600080fd5b506004361061010b5760003560e01c8063715018a6116100a2578063b88d4fde11610071578063b88d4fde1461021b578063c87b56dd1461022e578063d204c45e14610241578063e985e9c514610254578063f2fde38b1461029057600080fd5b8063715018a6146101e75780638da5cb5b146101ef57806395d89b4114610200578063a22cb4651461020857600080fd5b806323b872dd116100de57806323b872dd1461018d57806342842e0e146101a05780636352211e146101b357806370a08231146101c657600080fd5b806301ffc9a71461011057806306fdde0314610138578063081812fc1461014d578063095ea7b314610178575b600080fd5b61012361011e366004611225565b6102a3565b60405190151581526020015b60405180910390f35b6101406102f5565b60405161012f9190611292565b61016061015b3660046112a5565b610387565b6040516001600160a01b03909116815260200161012f565b61018b6101863660046112da565b6103ae565b005b61018b61019b366004611304565b6104c8565b61018b6101ae366004611304565b6104f9565b6101606101c13660046112a5565b610514565b6101d96101d4366004611340565b610574565b60405190815260200161012f565b61018b6105fa565b6007546001600160a01b0316610160565b61014061060e565b61018b61021636600461135b565b61061d565b61018b610229366004611423565b61062c565b61014061023c3660046112a5565b610664565b61018b61024f36600461149f565b61066f565b610123610262366004611501565b6001600160a01b03918216600090815260056020908152604080832093909416825291909152205460ff1690565b61018b61029e366004611340565b6106a6565b60006001600160e01b031982166380ac58cd60e01b14806102d457506001600160e01b03198216635b5e139f60e01b145b806102ef57506301ffc9a760e01b6001600160e01b03198316145b92915050565b60606000805461030490611534565b80601f016020809104026020016040519081016040528092919081815260200182805461033090611534565b801561037d5780601f106103525761010080835404028352916020019161037d565b820191906000526020600020905b81548152906001019060200180831161036057829003601f168201915b5050505050905090565b60006103928261071f565b506000908152600460205260409020546001600160a01b031690565b60006103b982610514565b9050806001600160a01b0316836001600160a01b03160361042b5760405162461bcd60e51b815260206004820152602160248201527f4552433732313a20617070726f76616c20746f2063757272656e74206f776e656044820152603960f91b60648201526084015b60405180910390fd5b336001600160a01b038216148061044757506104478133610262565b6104b95760405162461bcd60e51b815260206004820152603d60248201527f4552433732313a20617070726f76652063616c6c6572206973206e6f7420746f60448201527f6b656e206f776e6572206f7220617070726f76656420666f7220616c6c0000006064820152608401610422565b6104c3838361077e565b505050565b6104d233826107ec565b6104ee5760405162461bcd60e51b81526004016104229061156e565b6104c383838361086b565b6104c38383836040518060200160405280600081525061062c565b6000818152600260205260408120546001600160a01b0316806102ef5760405162461bcd60e51b8152602060048201526018602482015277115490cdcc8c4e881a5b9d985b1a59081d1bdad95b88125160421b6044820152606401610422565b60006001600160a01b0382166105de5760405162461bcd60e51b815260206004820152602960248201527f4552433732313a2061646472657373207a65726f206973206e6f7420612076616044820152683634b21037bbb732b960b91b6064820152608401610422565b506001600160a01b031660009081526003602052604090205490565b6106026109cf565b61060c6000610a29565b565b60606001805461030490611534565b610628338383610a7b565b5050565b61063633836107ec565b6106525760405162461bcd60e51b81526004016104229061156e565b61065e84848484610b49565b50505050565b60606102ef82610b7c565b6106776109cf565b600061068260085490565b9050610692600880546001019055565b61069c8382610ca4565b6104c38183610cbe565b6106ae6109cf565b6001600160a01b0381166107135760405162461bcd60e51b815260206004820152602660248201527f4f776e61626c653a206e6577206f776e657220697320746865207a65726f206160448201526564647265737360d01b6064820152608401610422565b61071c81610a29565b50565b6000818152600260205260409020546001600160a01b031661071c5760405162461bcd60e51b8152602060048201526018602482015277115490cdcc8c4e881a5b9d985b1a59081d1bdad95b88125160421b6044820152606401610422565b600081815260046020526040902080546001600160a01b0319166001600160a01b03841690811790915581906107b382610514565b6001600160a01b03167f8c5be1e5ebec7d5bd14f71427d1e84f3dd0314c0f7b2291e5b200ac8c7c3b92560405160405180910390a45050565b6000806107f883610514565b9050806001600160a01b0316846001600160a01b0316148061083f57506001600160a01b0380821660009081526005602090815260408083209388168352929052205460ff165b806108635750836001600160a01b031661085884610387565b6001600160a01b0316145b949350505050565b826001600160a01b031661087e82610514565b6001600160a01b0316146108a45760405162461bcd60e51b8152600401610422906115bb565b6001600160a01b0382166109065760405162461bcd60e51b8152602060048201526024808201527f4552433732313a207472616e7366657220746f20746865207a65726f206164646044820152637265737360e01b6064820152608401610422565b826001600160a01b031661091982610514565b6001600160a01b03161461093f5760405162461bcd60e51b8152600401610422906115bb565b600081815260046020908152604080832080546001600160a01b03199081169091556001600160a01b0387811680865260038552838620805460001901905590871680865283862080546001019055868652600290945282852080549092168417909155905184937fddf252ad1be2c89b69c2b068fc378daa952ba7f163c4a11628f55a4df523b3ef91a4505050565b6007546001600160a01b0316331461060c5760405162461bcd60e51b815260206004820181905260248201527f4f776e61626c653a2063616c6c6572206973206e6f7420746865206f776e65726044820152606401610422565b600780546001600160a01b038381166001600160a01b0319831681179093556040519116919082907f8be0079c531659141344cd1fd0a4f28419497f9722a3daafe3b4186f6b6457e090600090a35050565b816001600160a01b0316836001600160a01b031603610adc5760405162461bcd60e51b815260206004820152601960248201527f4552433732313a20617070726f766520746f2063616c6c6572000000000000006044820152606401610422565b6001600160a01b03838116600081815260056020908152604080832094871680845294825291829020805460ff191686151590811790915591519182527f17307eab39ab6107e8899845ad3d59bd9653f200f220920489ca2b5937696c31910160405180910390a3505050565b610b5484848461086b565b610b6084848484610d51565b61065e5760405162461bcd60e51b815260040161042290611600565b6060610b878261071f565b60008281526006602052604081208054610ba090611534565b80601f0160208091040260200160405190810160405280929190818152602001828054610bcc90611534565b8015610c195780601f10610bee57610100808354040283529160200191610c19565b820191906000526020600020905b815481529060010190602001808311610bfc57829003601f168201915b505050505090506000610c5760408051808201909152601881527768747470733a2f2f736e65616b65722e636f6d2f6e66742f60401b602082015290565b90508051600003610c69575092915050565b815115610c9b578082604051602001610c83929190611652565b60405160208183030381529060405292505050919050565b61086384610e52565b610628828260405180602001604052806000815250610ee6565b6000828152600260205260409020546001600160a01b0316610d395760405162461bcd60e51b815260206004820152602e60248201527f45524337323155524953746f726167653a2055524920736574206f66206e6f6e60448201526d32bc34b9ba32b73a103a37b5b2b760911b6064820152608401610422565b60008281526006602052604090206104c382826116cf565b60006001600160a01b0384163b15610e4757604051630a85bd0160e11b81526001600160a01b0385169063150b7a0290610d9590339089908890889060040161178f565b6020604051808303816000875af1925050508015610dd0575060408051601f3d908101601f19168201909252610dcd918101906117cc565b60015b610e2d573d808015610dfe576040519150601f19603f3d011682016040523d82523d6000602084013e610e03565b606091505b508051600003610e255760405162461bcd60e51b815260040161042290611600565b805181602001fd5b6001600160e01b031916630a85bd0160e11b149050610863565b506001949350505050565b6060610e5d8261071f565b6000610e9460408051808201909152601881527768747470733a2f2f736e65616b65722e636f6d2f6e66742f60401b602082015290565b90506000815111610eb45760405180602001604052806000815250610edf565b80610ebe84610f19565b604051602001610ecf929190611652565b6040516020818303038152906040525b9392505050565b610ef08383610fac565b610efd6000848484610d51565b6104c35760405162461bcd60e51b815260040161042290611600565b60606000610f2683611137565b600101905060008167ffffffffffffffff811115610f4657610f46611397565b6040519080825280601f01601f191660200182016040528015610f70576020820181803683370190505b5090508181016020015b600019016f181899199a1a9b1b9c1cb0b131b232b360811b600a86061a8153600a8504945084610f7a57509392505050565b6001600160a01b0382166110025760405162461bcd60e51b815260206004820181905260248201527f4552433732313a206d696e7420746f20746865207a65726f20616464726573736044820152606401610422565b6000818152600260205260409020546001600160a01b0316156110675760405162461bcd60e51b815260206004820152601c60248201527f4552433732313a20746f6b656e20616c7265616479206d696e746564000000006044820152606401610422565b6000818152600260205260409020546001600160a01b0316156110cc5760405162461bcd60e51b815260206004820152601c60248201527f4552433732313a20746f6b656e20616c7265616479206d696e746564000000006044820152606401610422565b6001600160a01b038216600081815260036020908152604080832080546001019055848352600290915280822080546001600160a01b0319168417905551839291907fddf252ad1be2c89b69c2b068fc378daa952ba7f163c4a11628f55a4df523b3ef908290a45050565b60008072184f03e93ff9f4daa797ed6e38ed64bf6a1f0160401b83106111765772184f03e93ff9f4daa797ed6e38ed64bf6a1f0160401b830492506040015b6d04ee2d6d415b85acef810000000083106111a2576d04ee2d6d415b85acef8100000000830492506020015b662386f26fc1000083106111c057662386f26fc10000830492506010015b6305f5e10083106111d8576305f5e100830492506008015b61271083106111ec57612710830492506004015b606483106111fe576064830492506002015b600a83106102ef5760010192915050565b6001600160e01b03198116811461071c57600080fd5b60006020828403121561123757600080fd5b8135610edf8161120f565b60005b8381101561125d578181015183820152602001611245565b50506000910152565b6000815180845261127e816020860160208601611242565b601f01601f19169290920160200192915050565b602081526000610edf6020830184611266565b6000602082840312156112b757600080fd5b5035919050565b80356001600160a01b03811681146112d557600080fd5b919050565b600080604083850312156112ed57600080fd5b6112f6836112be565b946020939093013593505050565b60008060006060848603121561131957600080fd5b611322846112be565b9250611330602085016112be565b9150604084013590509250925092565b60006020828403121561135257600080fd5b610edf826112be565b6000806040838503121561136e57600080fd5b611377836112be565b91506020830135801515811461138c57600080fd5b809150509250929050565b634e487b7160e01b600052604160045260246000fd5b600067ffffffffffffffff808411156113c8576113c8611397565b604051601f8501601f19908116603f011681019082821181831017156113f0576113f0611397565b8160405280935085815286868601111561140957600080fd5b858560208301376000602087830101525050509392505050565b6000806000806080858703121561143957600080fd5b611442856112be565b9350611450602086016112be565b925060408501359150606085013567ffffffffffffffff81111561147357600080fd5b8501601f8101871361148457600080fd5b611493878235602084016113ad565b91505092959194509250565b600080604083850312156114b257600080fd5b6114bb836112be565b9150602083013567ffffffffffffffff8111156114d757600080fd5b8301601f810185136114e857600080fd5b6114f7858235602084016113ad565b9150509250929050565b6000806040838503121561151457600080fd5b61151d836112be565b915061152b602084016112be565b90509250929050565b600181811c9082168061154857607f821691505b60208210810361156857634e487b7160e01b600052602260045260246000fd5b50919050565b6020808252602d908201527f4552433732313a2063616c6c6572206973206e6f7420746f6b656e206f776e6560408201526c1c881bdc88185c1c1c9bdd9959609a1b606082015260800190565b60208082526025908201527f4552433732313a207472616e736665722066726f6d20696e636f72726563742060408201526437bbb732b960d91b606082015260800190565b60208082526032908201527f4552433732313a207472616e7366657220746f206e6f6e20455243373231526560408201527131b2b4bb32b91034b6b83632b6b2b73a32b960711b606082015260800190565b60008351611664818460208801611242565b835190830190611678818360208801611242565b01949350505050565b601f8211156104c357600081815260208120601f850160051c810160208610156116a85750805b601f850160051c820191505b818110156116c7578281556001016116b4565b505050505050565b815167ffffffffffffffff8111156116e9576116e9611397565b6116fd816116f78454611534565b84611681565b602080601f831160018114611732576000841561171a5750858301515b600019600386901b1c1916600185901b1785556116c7565b600085815260208120601f198616915b8281101561176157888601518255948401946001909101908401611742565b508582101561177f5787850151600019600388901b60f8161c191681555b5050505050600190811b01905550565b6001600160a01b03858116825284166020820152604081018390526080606082018190526000906117c290830184611266565b9695505050505050565b6000602082840312156117de57600080fd5b8151610edf8161120f56fea2646970667358221220ff0de680400c5662149a9a96b4591647e703b3e72cd7040fa1ccbfa908cbc96964736f6c63430008130033a2646970667358221220420bed399034d3e6eee6d3532cd206323e60bba00c06a9963113402a4139137264736f6c63430008130033",
    "sourcePath": "/Users/borispolania/Documents/GitHub/Aurora-Sneakers/contracts/Factory.sol",
    "compiler": {
        "name": "solc",
        "version": "0.8.19+commit.7dd6d404"
    },
    "functionHashes": {
        "ADMIN_ROLE()": "75b238fc",
        "DEFAULT_ADMIN_ROLE()": "a217fddf",
        "createSneakerNFT()": "2f6bef42",
        "getNFTContracts()": "33b0b8fb",
        "getRoleAdmin(bytes32)": "248a9ca3",
        "grantRole(bytes32,address)": "2f2ff15d",
        "hasRole(bytes32,address)": "91d14854",
        "nfts(uint256)": "265aa621",
        "renounceRole(bytes32,address)": "36568abe",
        "revokeRole(bytes32,address)": "d547741f",
        "supportsInterface(bytes4)": "01ffc9a7"
    },
    "gasEstimates": {
        "creation": {
            "codeDepositCost": "1902200",
            "executionCost": "infinite",
            "totalCost": "infinite"
        },
        "external": {
            "ADMIN_ROLE()": "239",
            "DEFAULT_ADMIN_ROLE()": "283",
            "createSneakerNFT()": "infinite",
            "getNFTContracts()": "infinite",
            "getRoleAdmin(bytes32)": "2470",
            "grantRole(bytes32,address)": "infinite",
            "hasRole(bytes32,address)": "2687",
            "nfts(uint256)": "4659",
            "renounceRole(bytes32,address)": "28987",
            "revokeRole(bytes32,address)": "infinite",
            "supportsInterface(bytes4)": "427"
        }
    }
}